{
  "address": "0xFa2227B17F7f11e462fEbecE98358Fa900585c5F",
  "abi": [
    {
      "anonymous": false,
      "inputs": [
        {
          "indexed": true,
          "internalType": "address",
          "name": "voter",
          "type": "address"
        }
      ],
      "name": "VotedBad",
      "type": "event"
    },
    {
      "anonymous": false,
      "inputs": [
        {
          "indexed": true,
          "internalType": "address",
          "name": "voter",
          "type": "address"
        }
      ],
      "name": "VotedGood",
      "type": "event"
    },
    {
      "inputs": [],
      "name": "badVotes",
      "outputs": [
        {
          "internalType": "uint256",
          "name": "",
          "type": "uint256"
        }
      ],
      "stateMutability": "view",
      "type": "function"
    },
    {
      "inputs": [],
      "name": "getVotes",
      "outputs": [
        {
          "internalType": "uint256",
          "name": "good",
          "type": "uint256"
        },
        {
          "internalType": "uint256",
          "name": "bad",
          "type": "uint256"
        }
      ],
      "stateMutability": "view",
      "type": "function"
    },
    {
      "inputs": [],
      "name": "goodVotes",
      "outputs": [
        {
          "internalType": "uint256",
          "name": "",
          "type": "uint256"
        }
      ],
      "stateMutability": "view",
      "type": "function"
    },
    {
      "inputs": [
        {
          "internalType": "address",
          "name": "",
          "type": "address"
        }
      ],
      "name": "hasVoted",
      "outputs": [
        {
          "internalType": "bool",
          "name": "",
          "type": "bool"
        }
      ],
      "stateMutability": "view",
      "type": "function"
    },
    {
      "inputs": [],
      "name": "voteBad",
      "outputs": [],
      "stateMutability": "nonpayable",
      "type": "function"
    },
    {
      "inputs": [],
      "name": "voteGood",
      "outputs": [],
      "stateMutability": "nonpayable",
      "type": "function"
    },
    {
      "stateMutability": "payable",
      "type": "receive"
    }
  ],
  "transactionHash": "0x4d3689dba9cb6ba8cbd52b66f74779be975b643c8ca5661742f9f27dbdfafedb",
  "args": [],
  "numDeployments": 1,
  "solcInputHash": "316aef2dac76bc47b8d3dbb768602639",
  "bytecode": "0x608060405260008055600060015534801561001957600080fd5b5061047a806100296000396000f3fe6080604052600436106100595760003560e01c806309eef43e146100655780630dc96015146100aa5780632cb145d4146100d2578063860a52f6146100e9578063a12d4c2e146100fe578063ef0d1f5d1461012257600080fd5b3661006057005b600080fd5b34801561007157600080fd5b5061009561008036600461038d565b60026020526000908152604090205460ff1681565b60405190151581526020015b60405180910390f35b3480156100b657600080fd5b50600054600154604080519283526020830191909152016100a1565b3480156100de57600080fd5b506100e7610138565b005b3480156100f557600080fd5b506100e7610229565b34801561010a57600080fd5b5061011460005481565b6040519081526020016100a1565b34801561012e57600080fd5b5061011460015481565b3360009081526002602052604090205460ff16156101965760405162461bcd60e51b8152602060048201526016602482015275165bdd481a185d9948185b1c9958591e481d9bdd195960521b60448201526064015b60405180910390fd5b6101c960405180604001604052806011815260200170155cd95c88095cc81d9bdd195908189859607a1b81525033610317565b336000908152600260205260408120805460ff191660019081179091558054909182916101f79083906103bd565b909155505060405133907fac41981c55040b0354edbdf8126a7a6724923d0525d2905013c3f3e775ba86ad90600090a2565b3360009081526002602052604090205460ff16156102825760405162461bcd60e51b8152602060048201526016602482015275165bdd481a185d9948185b1c9958591e481d9bdd195960521b604482015260640161018d565b6102b660405180604001604052806012815260200171155cd95c88095cc81d9bdd19590819dbdbd960721b81525033610317565b336000908152600260205260408120805460ff19166001908117909155815490919081906102e59084906103bd565b909155505060405133907f529bca3c3008d56afabc9329670ee9aa5429b3028c8f6c45302014f3bfd0da7d90600090a2565b61035c828260405160240161032d9291906103e4565b60408051601f198184030181529190526020810180516001600160e01b031663319af33360e01b179052610360565b5050565b6103698161036c565b50565b60006a636f6e736f6c652e6c6f679050600080835160208501845afa505050565b60006020828403121561039f57600080fd5b81356001600160a01b03811681146103b657600080fd5b9392505050565b808201808211156103de57634e487b7160e01b600052601160045260246000fd5b92915050565b604081526000835180604084015260005b8181101561041257602081870181015160608684010152016103f5565b50600060608285018101919091526001600160a01b03949094166020840152601f01601f19169091019091019291505056fea2646970667358221220e6d5eef9ed24261aab52aa5a2b7b9584291fd93846211ac48d90c4f8c013b11f64736f6c63430008140033",
  "devdoc": {
    "kind": "dev",
    "methods": {},
    "version": 1
  },
  "userdoc": {
    "kind": "user",
    "methods": {
      "getVotes()": {
        "notice": "Function that returns the current vote counts"
      },
      "voteBad()": {
        "notice": "Function that allows a user to vote for bad vibes Each user can only vote once"
      },
      "voteGood()": {
        "notice": "Function that allows a user to vote for good vibes Each user can only vote once"
      }
    },
    "notice": "A simple voting contract where users can vote on vibes (good or bad) Each user can only vote once",
    "version": 1
  },
  "storageLayout": {
    "storage": [
      {
        "astId": 6,
        "contract": "contracts/YourContract.sol:VibesVoting",
        "label": "goodVotes",
        "offset": 0,
        "slot": "0",
        "type": "t_uint256"
      },
      {
        "astId": 9,
        "contract": "contracts/YourContract.sol:VibesVoting",
        "label": "badVotes",
        "offset": 0,
        "slot": "1",
        "type": "t_uint256"
      },
      {
        "astId": 13,
        "contract": "contracts/YourContract.sol:VibesVoting",
        "label": "hasVoted",
        "offset": 0,
        "slot": "2",
        "type": "t_mapping(t_address,t_bool)"
      }
    ],
    "types": {
      "t_address": {
        "encoding": "inplace",
        "label": "address",
        "numberOfBytes": "20"
      },
      "t_bool": {
        "encoding": "inplace",
        "label": "bool",
        "numberOfBytes": "1"
      },
      "t_mapping(t_address,t_bool)": {
        "encoding": "mapping",
        "key": "t_address",
        "label": "mapping(address => bool)",
        "numberOfBytes": "32",
        "value": "t_bool"
      },
      "t_uint256": {
        "encoding": "inplace",
        "label": "uint256",
        "numberOfBytes": "32"
      }
    }
  }
}